{
  "_format": "hh-sol-artifact-1",
  "contractName": "MedicamentoTrace",
  "sourceName": "contracts/MedicamentoTrace.sol",
  "abi": [
    {
      "anonymous": false,
      "inputs": [
        {
          "indexed": false,
          "internalType": "string",
          "name": "lote",
          "type": "string"
        },
        {
          "indexed": false,
          "internalType": "string",
          "name": "nombre",
          "type": "string"
        },
        {
          "indexed": false,
          "internalType": "address",
          "name": "propietario",
          "type": "address"
        }
      ],
      "name": "MedicamentoRegistrado",
      "type": "event"
    },
    {
      "anonymous": false,
      "inputs": [
        {
          "indexed": false,
          "internalType": "string",
          "name": "lote",
          "type": "string"
        },
        {
          "indexed": false,
          "internalType": "address",
          "name": "de",
          "type": "address"
        },
        {
          "indexed": false,
          "internalType": "address",
          "name": "para",
          "type": "address"
        },
        {
          "indexed": false,
          "internalType": "uint256",
          "name": "timestamp",
          "type": "uint256"
        }
      ],
      "name": "TransferenciaRealizada",
      "type": "event"
    },
    {
      "inputs": [
        {
          "internalType": "string",
          "name": "",
          "type": "string"
        },
        {
          "internalType": "uint256",
          "name": "",
          "type": "uint256"
        }
      ],
      "name": "historialTransferencias",
      "outputs": [
        {
          "internalType": "address",
          "name": "de",
          "type": "address"
        },
        {
          "internalType": "address",
          "name": "para",
          "type": "address"
        },
        {
          "internalType": "uint256",
          "name": "timestamp",
          "type": "uint256"
        }
      ],
      "stateMutability": "view",
      "type": "function"
    },
    {
      "inputs": [
        {
          "internalType": "string",
          "name": "",
          "type": "string"
        }
      ],
      "name": "medicamentos",
      "outputs": [
        {
          "internalType": "string",
          "name": "nombre",
          "type": "string"
        },
        {
          "internalType": "string",
          "name": "lote",
          "type": "string"
        },
        {
          "internalType": "string",
          "name": "fechaProduccion",
          "type": "string"
        },
        {
          "internalType": "address",
          "name": "actualPropietario",
          "type": "address"
        }
      ],
      "stateMutability": "view",
      "type": "function"
    },
    {
      "inputs": [
        {
          "internalType": "string",
          "name": "_lote",
          "type": "string"
        }
      ],
      "name": "obtenerHistorial",
      "outputs": [
        {
          "components": [
            {
              "internalType": "address",
              "name": "de",
              "type": "address"
            },
            {
              "internalType": "address",
              "name": "para",
              "type": "address"
            },
            {
              "internalType": "uint256",
              "name": "timestamp",
              "type": "uint256"
            }
          ],
          "internalType": "struct MedicamentoTrace.Transferencia[]",
          "name": "",
          "type": "tuple[]"
        }
      ],
      "stateMutability": "view",
      "type": "function"
    },
    {
      "inputs": [
        {
          "internalType": "string",
          "name": "_nombre",
          "type": "string"
        },
        {
          "internalType": "string",
          "name": "_lote",
          "type": "string"
        },
        {
          "internalType": "string",
          "name": "_fechaProduccion",
          "type": "string"
        }
      ],
      "name": "registrarMedicamento",
      "outputs": [],
      "stateMutability": "nonpayable",
      "type": "function"
    },
    {
      "inputs": [
        {
          "internalType": "string",
          "name": "_lote",
          "type": "string"
        },
        {
          "internalType": "address",
          "name": "_nuevoPropietario",
          "type": "address"
        }
      ],
      "name": "transferirMedicamento",
      "outputs": [],
      "stateMutability": "nonpayable",
      "type": "function"
    }
  ],
  "bytecode": "0x608060405234801561001057600080fd5b5061142b806100206000396000f3fe608060405234801561001057600080fd5b50600436106100575760003560e01c80632c33e8111461005c57806355c54e04146100785780635e6e16cb146100aa5780637775dca3146100dd578063ee397f4e1461010d575b600080fd5b61007660048036038101906100719190610a9a565b610129565b005b610092600480360381019061008d9190610b77565b6102fa565b6040516100a193929190610c23565b60405180910390f35b6100c460048036038101906100bf9190610c5a565b610397565b6040516100d49493929190610d22565b60405180910390f35b6100f760048036038101906100f29190610c5a565b610595565b6040516101049190610e8b565b60405180910390f35b61012760048036038101906101229190610ed9565b6106c8565b005b600073ffffffffffffffffffffffffffffffffffffffff166000836040516101519190610f71565b908152602001604051809103902060030160009054906101000a900473ffffffffffffffffffffffffffffffffffffffff1673ffffffffffffffffffffffffffffffffffffffff16146101d9576040517f08c379a00000000000000000000000000000000000000000000000000000000081526004016101d090610ffa565b60405180910390fd5b60405180608001604052808481526020018381526020018281526020013373ffffffffffffffffffffffffffffffffffffffff168152506000836040516102209190610f71565b908152602001604051809103902060008201518160000190816102439190611226565b5060208201518160010190816102599190611226565b50604082015181600201908161026f9190611226565b5060608201518160030160006101000a81548173ffffffffffffffffffffffffffffffffffffffff021916908373ffffffffffffffffffffffffffffffffffffffff1602179055509050507f3b68f44a3a2b60c4ba761da1723943fa246f9bb76a965f20334511292ace0dc78284336040516102ed939291906112f8565b60405180910390a1505050565b600182805160208101820180518482526020830160208501208183528095505050505050818154811061032c57600080fd5b9060005260206000209060030201600091509150508060000160009054906101000a900473ffffffffffffffffffffffffffffffffffffffff16908060010160009054906101000a900473ffffffffffffffffffffffffffffffffffffffff16908060020154905083565b6000818051602081018201805184825260208301602085012081835280955050505050506000915090508060000180546103d090611049565b80601f01602080910402602001604051908101604052809291908181526020018280546103fc90611049565b80156104495780601f1061041e57610100808354040283529160200191610449565b820191906000526020600020905b81548152906001019060200180831161042c57829003601f168201915b50505050509080600101805461045e90611049565b80601f016020809104026020016040519081016040528092919081815260200182805461048a90611049565b80156104d75780601f106104ac576101008083540402835291602001916104d7565b820191906000526020600020905b8154815290600101906020018083116104ba57829003601f168201915b5050505050908060020180546104ec90611049565b80601f016020809104026020016040519081016040528092919081815260200182805461051890611049565b80156105655780601f1061053a57610100808354040283529160200191610565565b820191906000526020600020905b81548152906001019060200180831161054857829003601f168201915b5050505050908060030160009054906101000a900473ffffffffffffffffffffffffffffffffffffffff16905084565b60606001826040516105a79190610f71565b9081526020016040518091039020805480602002602001604051908101604052809291908181526020016000905b828210156106bd57838290600052602060002090600302016040518060600160405290816000820160009054906101000a900473ffffffffffffffffffffffffffffffffffffffff1673ffffffffffffffffffffffffffffffffffffffff1673ffffffffffffffffffffffffffffffffffffffff1681526020016001820160009054906101000a900473ffffffffffffffffffffffffffffffffffffffff1673ffffffffffffffffffffffffffffffffffffffff1673ffffffffffffffffffffffffffffffffffffffff168152602001600282015481525050815260200190600101906105d5565b505050509050919050565b3373ffffffffffffffffffffffffffffffffffffffff166000836040516106ef9190610f71565b908152602001604051809103902060030160009054906101000a900473ffffffffffffffffffffffffffffffffffffffff1673ffffffffffffffffffffffffffffffffffffffff1614610777576040517f08c379a000000000000000000000000000000000000000000000000000000000815260040161076e90611389565b60405180910390fd5b6001826040516107879190610f71565b908152602001604051809103902060405180606001604052803373ffffffffffffffffffffffffffffffffffffffff1681526020018373ffffffffffffffffffffffffffffffffffffffff16815260200142815250908060018154018082558091505060019003906000526020600020906003020160009091909190915060008201518160000160006101000a81548173ffffffffffffffffffffffffffffffffffffffff021916908373ffffffffffffffffffffffffffffffffffffffff16021790555060208201518160010160006101000a81548173ffffffffffffffffffffffffffffffffffffffff021916908373ffffffffffffffffffffffffffffffffffffffff160217905550604082015181600201555050806000836040516108b09190610f71565b908152602001604051809103902060030160006101000a81548173ffffffffffffffffffffffffffffffffffffffff021916908373ffffffffffffffffffffffffffffffffffffffff1602179055507fb2ec6e331cbc980d5b8197c7b3a7f708349b63198510d9f88f3da32f9996dc5d8233834260405161093494939291906113a9565b60405180910390a15050565b6000604051905090565b600080fd5b600080fd5b600080fd5b600080fd5b6000601f19601f8301169050919050565b7f4e487b7100000000000000000000000000000000000000000000000000000000600052604160045260246000fd5b6109a78261095e565b810181811067ffffffffffffffff821117156109c6576109c561096f565b5b80604052505050565b60006109d9610940565b90506109e5828261099e565b919050565b600067ffffffffffffffff821115610a0557610a0461096f565b5b610a0e8261095e565b9050602081019050919050565b82818337600083830152505050565b6000610a3d610a38846109ea565b6109cf565b905082815260208101848484011115610a5957610a58610959565b5b610a64848285610a1b565b509392505050565b600082601f830112610a8157610a80610954565b5b8135610a91848260208601610a2a565b91505092915050565b600080600060608486031215610ab357610ab261094a565b5b600084013567ffffffffffffffff811115610ad157610ad061094f565b5b610add86828701610a6c565b935050602084013567ffffffffffffffff811115610afe57610afd61094f565b5b610b0a86828701610a6c565b925050604084013567ffffffffffffffff811115610b2b57610b2a61094f565b5b610b3786828701610a6c565b9150509250925092565b6000819050919050565b610b5481610b41565b8114610b5f57600080fd5b50565b600081359050610b7181610b4b565b92915050565b60008060408385031215610b8e57610b8d61094a565b5b600083013567ffffffffffffffff811115610bac57610bab61094f565b5b610bb885828601610a6c565b9250506020610bc985828601610b62565b9150509250929050565b600073ffffffffffffffffffffffffffffffffffffffff82169050919050565b6000610bfe82610bd3565b9050919050565b610c0e81610bf3565b82525050565b610c1d81610b41565b82525050565b6000606082019050610c386000830186610c05565b610c456020830185610c05565b610c526040830184610c14565b949350505050565b600060208284031215610c7057610c6f61094a565b5b600082013567ffffffffffffffff811115610c8e57610c8d61094f565b5b610c9a84828501610a6c565b91505092915050565b600081519050919050565b600082825260208201905092915050565b60005b83811015610cdd578082015181840152602081019050610cc2565b60008484015250505050565b6000610cf482610ca3565b610cfe8185610cae565b9350610d0e818560208601610cbf565b610d178161095e565b840191505092915050565b60006080820190508181036000830152610d3c8187610ce9565b90508181036020830152610d508186610ce9565b90508181036040830152610d648185610ce9565b9050610d736060830184610c05565b95945050505050565b600081519050919050565b600082825260208201905092915050565b6000819050602082019050919050565b610db181610bf3565b82525050565b610dc081610b41565b82525050565b606082016000820151610ddc6000850182610da8565b506020820151610def6020850182610da8565b506040820151610e026040850182610db7565b50505050565b6000610e148383610dc6565b60608301905092915050565b6000602082019050919050565b6000610e3882610d7c565b610e428185610d87565b9350610e4d83610d98565b8060005b83811015610e7e578151610e658882610e08565b9750610e7083610e20565b925050600181019050610e51565b5085935050505092915050565b60006020820190508181036000830152610ea58184610e2d565b905092915050565b610eb681610bf3565b8114610ec157600080fd5b50565b600081359050610ed381610ead565b92915050565b60008060408385031215610ef057610eef61094a565b5b600083013567ffffffffffffffff811115610f0e57610f0d61094f565b5b610f1a85828601610a6c565b9250506020610f2b85828601610ec4565b9150509250929050565b600081905092915050565b6000610f4b82610ca3565b610f558185610f35565b9350610f65818560208601610cbf565b80840191505092915050565b6000610f7d8284610f40565b915081905092915050565b7f456c206d65646963616d656e746f20796120657374612072656769737472616460008201527f6f2e000000000000000000000000000000000000000000000000000000000000602082015250565b6000610fe4602283610cae565b9150610fef82610f88565b604082019050919050565b6000602082019050818103600083015261101381610fd7565b9050919050565b7f4e487b7100000000000000000000000000000000000000000000000000000000600052602260045260246000fd5b6000600282049050600182168061106157607f821691505b6020821081036110745761107361101a565b5b50919050565b60008190508160005260206000209050919050565b60006020601f8301049050919050565b600082821b905092915050565b6000600883026110dc7fffffffffffffffffffffffffffffffffffffffffffffffffffffffffffffffff8261109f565b6110e6868361109f565b95508019841693508086168417925050509392505050565b6000819050919050565b600061112361111e61111984610b41565b6110fe565b610b41565b9050919050565b6000819050919050565b61113d83611108565b6111516111498261112a565b8484546110ac565b825550505050565b600090565b611166611159565b611171818484611134565b505050565b5b818110156111955761118a60008261115e565b600181019050611177565b5050565b601f8211156111da576111ab8161107a565b6111b48461108f565b810160208510156111c3578190505b6111d76111cf8561108f565b830182611176565b50505b505050565b600082821c905092915050565b60006111fd600019846008026111df565b1980831691505092915050565b600061121683836111ec565b9150826002028217905092915050565b61122f82610ca3565b67ffffffffffffffff8111156112485761124761096f565b5b6112528254611049565b61125d828285611199565b600060209050601f831160018114611290576000841561127e578287015190505b611288858261120a565b8655506112f0565b601f19841661129e8661107a565b60005b828110156112c6578489015182556001820191506020850194506020810190506112a1565b868310156112e357848901516112df601f8916826111ec565b8355505b6001600288020188555050505b505050505050565b600060608201905081810360008301526113128186610ce9565b905081810360208301526113268185610ce9565b90506113356040830184610c05565b949350505050565b7f4e6f206572657320656c2070726f706965746172696f2061637475616c2e0000600082015250565b6000611373601e83610cae565b915061137e8261133d565b602082019050919050565b600060208201905081810360008301526113a281611366565b9050919050565b600060808201905081810360008301526113c38187610ce9565b90506113d26020830186610c05565b6113df6040830185610c05565b6113ec6060830184610c14565b9594505050505056fea2646970667358221220824e6b9b37632d56401c9e4235d43e16737441c2943a460a17c288c7a93e523264736f6c63430008140033",
  "linkReferences": {},
  "deployedLinkReferences": {}
}